:10000000D3C10000EFC10000EDC100000C946C12E0
:10001000E9C10000E7C10000E5C10000E3C1000044
:10002000E1C10000DFC10000DDC10000DBC1000054
:10003000D9C100000C940512D5C10000D3C1000045
:10004000DDC30000CFC10000CDC10000CBC1000066
:100050000C94431D0C940B1DC5C10000C3C10000CE
:10006000C1C10000BFC10000BDC10000BBC1000094
:100070000C942B3DB7C10000B5C10000B3C1000016
:10008000B1C10000AFC10000ADC10000E429ED2BFB
:10009000052A012B282B482B522BF52A6DD91C42FF
:1000A000340843D50246570A5A761869533B418AA9
:1000B0000C475B0A4D930A52F506546B19569B0880
:1000C00057690758EE0D4FD93965590866101C6CF1
:1000D0002208745A0475B61448063F786603454CE6
:1000E00020634D32713E21000000202F2000203D72
:1000F0002000072E050DD391FF080500000C0021FC
:10010000656A2D3B1322F862073F181D1CC700B01B
:10011000876BF8B611EA2A001F41000D2E2D07D378
:10012000913D04320000060021656A55E43023B990
:1001300000070018146C070090876BF85611E92A25
:10014000001F410000030F1E2627000000030F1EA2
:100150002536386700030F256740605000030F27DE
:100160005188838100030F2750C8C3C200270000B5
:1001700000000000006700000000000000500000C8
:1001800000000000008100000000000000C200002C
:1001900000000000504C4C310D0A00504C4C300D0A
:1001A0000A005620312E36312043554E4F3836380E
:1001B000005620312E36312043554E4F3433330014
:1001C000202F2000203D20004C4F56460D0A000BEA
:1001D00008105B11F81547191D1A1C1BC71C001DC0
:1001E000B221B623EA0007022E030D04E905CA076F
:1001F0000C0B060D210E650F6A10C8119312031522
:10020000341733181819161B4321562500261129B7
:10021000592C812D353EC3424F56460D0A004C45A0
:100220004E4552520D0A004C4F56460D0A004C45A1
:100230004E4552520D0A000007024604C605260B21
:100240000610C81193120313221534173F182819EA
:10025000161B432156250026110D210E650F6A0736
:100260000C160720F81E871F6B29592C812D353E4F
:10027000C3FF004E2F4100454F420D0A004E2F4153
:100280000000535300547D7DFFFF4B4B7E7E0020CA
:10029000697320756E6B6E6F776E292055736520BC
:1002A0006F6E65206F66003F202800413435303581
:1002B000350041343530353500303000302E302EA9
:1002C000302E300032333233003139322E3136386D
:1002D0002E302E31003235352E3235352E32353531
:1002E0002E30003139322E3136382E302E32343421
:1002F0000031000D2E2D07D3913D04320000060081
:1003000010B07155E43023B900070018146C0700D1
:1003100090876BF85611E92A001F41002053495A73
:10032000453A0020444154413A00204352433A00A8
:10033000204F563A002050453A002046453A0020CA
:10034000524543563A0053454E543A00483F2073B5
:1003500074617475732C2048736161626263632EEB
:100360002E2E2073656E64206D6573736167652042
:100370006161626263632E2E2E00746F6F2073685A
:100380006F72742C206D696E696D756D20392062F5
:10039000797465733A20646464646464636373733A
:1003A000737373737373000011241FBECFEFD0E417
:1003B000DEBFCDBF12E0A0E0B1E0E4E1F6E800E08E
:1003C0000BBF02C007900D92A034B107D9F71DE111
:1003D000A0E4B2E001C01D92A434B107E1F703D05C
:1003E0000C9408430DCE88E10FB6F894809360001A
:1003F000109260000FBE549A5C9A5D9A5E9A209AA1
:10040000289A0E94283384D660E083E390E00E941B
:10041000D8420E943E330E9457370E94AE3689EF81
:1004200087BD84E085BD82E084BD80936E0010921C
:1004300080008AE08093810090E080E80FB6F89415
:1004400080936100909361000FBE84B7877F84BF63
:100450002FE088E190E00FB6F894A89580936000B3
:100460000FBE2093600089E190E80E94771D0E94F2
:1004700050190E94CB0D83ED9DE190930909809363
:1004800008090E94D81389E0809343020E94DD1F6F
:1004900028980E941A3D78940E94981D0E94BA0FD5
:1004A00022D20E94561C0E9458150E945F0B0E9487
:1004B000151F0E94FE170E94FE3DEECF8EBD0DB4AB
:1004C00007FEFDCF8EB50895EF92FF920F931F9315
:1004D000CF93C82F8A3008F0C8E028E0C29F80017F
:1004E00011248BE290E00B521109FC01E00FF11F87
:1004F000EC5BFE4F64917C012FEFE21AF20A3ED4CE
:10050000C7018333910589F7C550C53010F067E105
:1005100001C061E184E290E031D4CF911F910F914D
:10052000FF90EF900895CF93DF9382E090E0FC017D
:10053000E75EFE4F6491EC01219620D4CE01CB32D0
:10054000D105A9F787E390E0FC01E554FF4F6491E2
:10055000EC01219613D4CE01C036D105A9F74D99EF
:1005600018C060E18FE090E009D460EB80E190E09A
:1005700005D461E781E190E001D460E184E490E09A
:10058000FDD360EB85E490E0F9D361E786E490E089
:10059000F5D388E099DFDF91CF9108952C98806C96
:1005A0008DDF80E08BDF2C9A0895A1E0B0E0EBEDC9
:1005B000F2E00C94724241E0BE016F5F7F4F019602
:1005C0004AD3892B21F18981893969F410E0812F7F
:1005D000E5DF3CD3812F8770873009F4BFD21F5FDE
:1005E0001033A9F714C0DADF182F83E460D28981B1
:1005F0002DD38EEE90E0A5D2812F28D38AEE90E005
:10060000A0D240E262E0812F90E0ADD2A7D2219645
:10061000E3E00C948E42A1E0B0E0E1E1F3E00C9461
:1006200073422C988064698349DF6981862F46DF95
:100630002C9A2196E2E00C948F422C983FDF2C9A62
:100640000895EF92FF920F931F93CF93DF93EC01E6
:100650001092EF02EA98249A2C9A8EE190E0ACD1A5
:100660002C988EE190E0A8D12C9A8DE290E0A4D154
:1006700080E3E3DF84E690E09FD12C9880E41EDFE6
:100680008E01075D1F4F7E018FEFE81AF80ACE0139
:100690007AD314DFE701E016F106A9F72C9A2C981B
:1006A0008EE70CDF8BE290E0EC0121966CD306DF45
:1006B000CE01C333D105C1F72C9A83E3BEDF81E0BD
:1006C00080D1CDB7DEB7E6E00C948B42A1E0B0E07C
:1006D000ECE6F3E00C94734222E0298341E0BE0192
:1006E0006F5F7F4F0196B7D28981EEDE82E090E0A6
:1006F000A8DF2196E2E00C948F42CF93EA9886E33C
:100700009CDFCFEF85E399DFC1508077803229F0FD
:100710008AE090E051D1C111F5CFCF910895CF93E8
:10072000CFEF84E38ADFC1508077803129F08AE0FF
:1007300090E042D1C111F5CFEA9ACF91089586E3B6
:100740007CDF10920A09109249021092EF0208957C
:1007500082E090E076DF81E080930A0910924902FE
:100760001092EF0208950F931F93CF93DF93D82F2A
:10077000C0E0062F10E085E311DF8D1731F0C801CE
:100780001BD1C150C1F781E001C080E0DF91CF9162
:100790001F910F91089585E201DF8F3311F080E002
:1007A000089586E34ADF80914002811104C08BE9FD
:1007B00091E0C7D102C08DE340DF83E33EDF64E018
:1007C00081E0D1DF85E2EADE8F3349F78091400294
:1007D000811103C084E991E0B4D181E0089585E3FB
:1007E000DDDE8D3051F485E2D9DE8F3331F4D3DF95
:1007F00084E323DF80778031D9F708951F920F9229
:100800000FB60F9211248F939F93AF93BF93809154
:100810000C0990910D09A0910E09B0910F09019654
:10082000A11DB11D80930C0990930D09A0930E0991
:10083000B0930F0980910B098F5F80930B098D375F
:1008400010F010920B098091D31C8F5F8093D31C02
:100850008D37A8F080910D0190910E01A0910F01AC
:10086000B09110010196A11DB11D80930D019093CF
:100870000E01A0930F01B09310011092D31C809130
:10088000310D9091320D009729F001979093320D20
:100890008093310D8091440D8F3F19F081508093EA
:1008A000440DBF91AF919F918F910F900FBE0F900C
:1008B0001F901895CF93DF93CCE0D9E08B81C6D100
:1008C0008A81C4D18981C2D18881C0D147D1DF91C9
:1008D000CF91089580910C0990910D09A0910E0976
:1008E000B0910F09089580910C0990910D09A09184
:1008F0000E09B0910F0920914202281709F45BC03C
:1009000080910C0990910D09A0910E09B0910F09E9
:1009100080934202A8958091310D9091320D892BE0
:1009200011F40E94DA1A8091440D811102C00E94D4
:10093000391B8091210D882339F081508093210D3E
:10094000811102C00E94F4150E94A13780910B0909
:10095000811131C08091000181FF04C095B181E017
:10096000892785B98091100990911109843823E075
:10097000920728F4019690931109809310090E9420
:10098000C93380910D01811102C00E94CD32809146
:1009900041028F5F8C3319F08093410208951092C9
:1009A000410280912E0D8F5F8C3318F480932E0DB1
:1009B000089510922E0D0895880F991F0197F1F751
:1009C000089520ED37E0815020F0F9013197F1F7DB
:1009D000FACF0895CF93DF93EC018E81843509F02F
:1009E00063C0FE013696288139814DE0842F90E066
:1009F0008217930740F0A9014F50510984179507BA
:100A000009F052C008C0DF01A80FB91F5C915B3329
:100A100091F34F5FEBCFD9011E97AE0FBF1F8C91A3
:100A2000843509F041C09F8111968C9111979813DC
:100A30003BC0988512968C911297981335C0998572
:100A400013968C91139798132FC09A8514968C91B6
:100A50001497981329C021513109E20FF31F1596FD
:100A60008C911597808316968C9116978183199691
:100A70008C91199782831A968C911A9783831B966F
:100A80008C911B9784831C968C911C9785831D9653
:100A90008C918683888199810A97998388838C8138
:100AA0009D810A979D838C83DF91CF910895CF9389
:100AB000C82F8091430282FF03C08C2F0E943121F6
:100AC0008091430280FF13C080914A0D90914B0D9D
:100AD0008E3F23E0920738F08115944040F4CD30EA
:100AE00011F0CA3021F46C2F86E49DE036D380915A
:100AF0002C0D8823C9F08091430283FF15C0CA30B2
:100B000099F0CD3011F06C2F01C06BE389E199E0D1
:100B100024D3CD3019F489E199E05CDF83E0809340
:100B2000210D82E08093270DCF910895CF93DF931D
:100B3000EC018991882311F0BADFFBCFDF91CF91CF
:100B40000895CF93DF93EC01FE018491882319F07F
:100B5000AEDF2196F9CFDF91CF9108958DE0A7DF29
:100B60008AE0A5CF0895A6E0B0E0E9EBF5E00C94AB
:100B70007142362F1E8225E0EAE0F0E0215001E0CC
:100B800010E00C0F1D1F020F111DBF010E941A4221
:100B9000805DD8018C93CB013150009769F0211111
:100BA000EDCF0AC0222359F02150E1E0F0E0EC0F34
:100BB000FD1FE20FF11D4083315037FFF3CF81E07D
:100BC00090E08C0F9D1F820F911DB0DF2696E4E010
:100BD0000C948D42A5E0B0E0E0EFF5E00C9471429A
:100BE000FC011D8294E02E2F2F709150A92FB0E0B0
:100BF0002A3010F4205D01C0295C01E010E00C0FE8
:100C00001D1FA00FB11F2C9384E0F695E7958A95E0
:100C1000E1F76150309739F7615067FD0BC09923B8
:100C200049F09150E1E0F0E0EC0FFD1FE90FF11DFC
:100C30004083F2CF21E030E02C0F3D1F290F311D02
:100C4000C90174DF2596E4E00C948D4240E362E034
:100C500090E0C0CF0895CF93DF93EC01DB0130E04B
:100C600020E099919923E9F080ED890F8A3018F4FA
:100C7000282B51E001C050E08FEB890F863020F423
:100C800089EC890F282B51E08FE9890F863018F401
:100C90009755292B08C0511106C0903211F39A3391
:100CA00001F3CD0108C0332359F0FD0131962C9397
:100CB000415051F4CF01861B970BDF91CF910895DE
:100CC0002295207F31E0CDCFDF01C9CFDC01FB01D0
:100CD00030E090E02D912223C9F080ED820F8A3020
:100CE00048F4990F392F330F330F930F9053920F0E
:100CF00031E0F0CF203211F02E3279F4442321F08C
:100D0000908341503196E4CF30E0E4CFDF013323CC
:100D100021F0442311F031969C93CF01861B970B51
:100D20000895FC0120E030E08AE09191992379F068
:100D300040ED490F4A30C8F7829FA001839F500DB4
:100D400011249A0120533109290F311DEECFFB01E7
:100D5000318320830895982F92959F709A3010F4D4
:100D6000905D01C0995CFB0190838F708A3010F414
:100D7000805D01C0895CFB01818308950E94EA4285
:100D8000F999FECF08950C94CB4208950F931F93C9
:100D9000CF93C4E0C15070F08C010F5F1F4FF3DFA1
:100DA00040E261E090E0DFDECC2311F08EE27FDEF6
:100DB000C801F0CFCF911F910F9108950F931F930A
:100DC000CF93CFEFC60FCF3F61F08C010F5F1F4F66
:100DD000DADF3CDFCC2311F08AE369DEC150C801C1
:100DE000F2CFCF911F910F910895A2E0B0E0EBEF09
:100DF000F6E00C947042FC012181293691F5828144
:100E00008D3621F466E082E690E030C0843619F435
:100E100088E690E019C0813619F489E690E00EC0AA
:100E20008E3619F48DE690E009C0873619F481E713
:100E300090E004C08E3421F485E790E0A7DF44C041
:100E40008F3629F48BE790E09EDF00DF3DC08037CE
:100E500009F03AC089E790E00E94D34240E260E0A6
:100E600032C02D3429F466E08AEF9FE0A7DF2CC062
:100E7000203521F460E18AED9FE0F8CF1A821982D3
:100E800042E0BE016F5F7F4F0196E5DE098110E011
:100E9000823021F4102F00278A81082BC80173DFCC
:100EA000F82E82E504DE40E364E0C80193DE84ECC2
:100EB00091E047DE8F2DCADE80EC91E042DE40E219
:100EC00062E08F2D90E04FDE49DE2296E5E00C9443
:100ED0008C42A8E0B0E0EFE6F7E00C946B429C0196
:100EE000FC018181AE014F5F5F4F5A01893609F0E5
:100EF00069C082818D3649F446E0B501C901039687
:100F0000AADE82E690E016E04DC0843639F4BA01DC
:100F1000C901039606DF88E690E03FC0813641F4C0
:100F200044E0B501C9010396D1DE89E690E027C00F
:100F30008E3641F444E0B501C9010396C7DE8DE663
:100F400090E01DC0873641F444E0B501C901039625
:100F5000BDDE81E790E013C0803741F4BA01C901DA
:100F60000396DFDE89E790E012E01CC08E3449F47E
:100F700044E0B501C9010396A9DE85E790E014E0DD
:100F800011C08F3661F441E0B501C901039663DEFB
:100F900089818093D41C8BE790E011E003C080E04E
:100FA00090E010E075012E2D2A19211708F046C097
:100FB000F70161917F016C01FFEFCF1ADF0ADEDEDE
:100FC000C601F1CF43E0B501C90101962F833887EF
:100FD00042DE6C012F813885823080F1098110E07A
:100FE000823021F0102F00278A81082BDD24FE019A
:100FF000EC0DFD1D6081C8012F833887BFDECC0C4E
:10100000DD1C4FEFC41AD40A2F8138857901EC0C0E
:10101000FD1C0F5F1F4FF7018081882379F041E0AD
:10102000B501C70118DE892B49F06981C801A6DE28
:1010300052E0E50EF11C0E5F1F4FEDCF2896EAE05F
:101040000C94874241E060E071E0019604DE8091FB
:10105000000180FF02C0289A01C028986091000119
:1010600084E390E08BCE0895A1E0B0E0EAE3F8E0FD
:101070000C9473421982009731F041E0BE016F5F1A
:101080007F4F0196E8DD8981882321F061E083E3C9
:1010900090E074DE10926E00F89428E088E190E011
:1010A0000FB6F894A895809360000FBE209360005F
:1010B000FFCFCF93DF93EC0161E080E090E05EDE54
:1010C0006DE381E090E05ADE2EDA60E080E690E0A9
:1010D00055DE60E081E690E051DE60E083E390E081
:1010E0004DDE62E084E390E049DE0E94541E60E041
:1010F00080E690E043DE60E081E690E03FDE8981BB
:10110000883719F080E090E0AFDFDF91CF9108954C
:1011100080E090E038DE813029F481E090E033DE39
:101120008D3319F080E090E0C4DF84E390E02BDEA3
:101130008093000108954D9903C081EB91E002C0B6
:1011400082EA91E0FEDC0ACD0895FC01158214824A
:1011500011821082138212820895FC012FB7F89435
:1011600084819581811534E09307A0F401969583DD
:10117000848380819181AC014F5F5F4F51834083B5
:10118000DF01A80FB91F16966C934115544011F456
:10119000118210822FBF0895FC012FB7F89484812B
:1011A0009581009719F42FBF80E0089501979583EA
:1011B000848382819381AC014F5F5F4F538342836D
:1011C000DF01A80FB91F16968C914115544011F4F8
:1011D000138212822FBF0895FA019081882369F04B
:1011E000DB01A90FB11DE1E0F0E0022E01C0EE0F1E
:1011F0000A94EAF78C91E82BEC93222319F08FEFF5
:10120000820F0BC081E0890F8C3010F4FA018083CB
:10121000FB01E80FF11D108287E090E00895CF9365
:10122000C82F299A882319F09091460202C0909104
:10123000480220E1929FC0011124BEDB2998CC23F3
:1012400019F08091450202C08091470220E1829FFF
:10125000C0011124B1DBCF910895A4E0B0E0E3E335
:10126000F9E00C9463422C01162FA22EC42ED12C2F
:101270002091100930911109C6010296089F802D16
:101280001124992787FD90952817390720F488ECB9
:1012900091E057DC82C0281B390B30931109209351
:1012A0001009289A8091EF02882341F01092EF02F2
:1012B00084E392E093D4FF24F39401C0F12C809155
:1012C0000A09811101C044DA18DA612E712C8824D0
:1012D0008394912CB12C312C832D992787FD9095E7
:1012E0008615970524F480E09ADF3394F5CF112317
:1012F00011F081E094DF90E0292F332727FD30950E
:101300002C153D05F4F447E0242E312CA901440DA1
:10131000551D5B834A839401022C01C0220F0A945D
:10132000EAF7EA81FB8180818223998378DFF1E00B
:101330002F1A310899814FEF2416340661F79F5F09
:10134000DBCF87E0382E240D351D832D992787FDAF
:101350009095A816B90684F4C401032C01C0880F27
:101360000A94EAF7F9019081892329833C8357DFA6
:101370003A943C812981E9CF8E2D23DB015009F07D
:10138000AACF80911209882311F0C9D902C086E33F
:1013900054D9F1100E94111628982496E2E10C9479
:1013A0007F42ADE0B0E0E7EDF9E00C9468427C01EB
:1013B000162F842F022F6701C60ED11C462FB701AE
:1013C00026D4F601808377247394710E1D861982CA
:1013D00027E010E0CC24C394D12C97E0A92EB12CA7
:1013E0004701810E911C171560F5C6010A2C01C03A
:1013F000880F0A94EAF7F4019081AE01435F5F4FD2
:10140000BE016F5F7F4F8923E7DE282FF1E0AF1A1F
:10141000B10848F7F4019081092E92959025092E84
:101420009695969590259F5F91FB882780F9AE0150
:10143000435F5F4FBE016F5F7F4FCEDE282F1F5F80
:10144000CCCF222311F0215004C08D858F5F8D8772
:1014500027E089E1809347028093480285E28093E8
:101460004502809346028AE0E82E4D856CE0CE016D
:101470000196F3DE2D96EDE00C948442ADE0B0E0F1
:10148000E4E4FAE00C947242162F242F4BE0BE01E4
:101490006F5F7F4F01962D87DEDB2D85412F682FF3
:1014A000CE0101967EDF2D96E3E00C948E4243E060
:1014B00066E0E4CF0895EF920F93CF93DF93CDB71B
:1014C000DEB760970FB6F894DEBF0FBECDBF40E128
:1014D000BE016F5F7F4F0196BEDB69814A810B8140
:1014E0008C81809348028D81809347028E81809306
:1014F00046028F8180934502E02EE2948FE0E8223D
:101500000F70242F2F7042954F70CE010896A5DEE4
:1015100060960FB6F894DEBF0FBECDBFDF91CF91BE
:101520000F91EF9008958F929F92BF92CF92DF928A
:10153000EF92FF920F931F93CF93DF93CDB7DEB758
:1015400069970FB6F894DEBF0FBECDBF4BE08E019A
:101550000F5F1F4FB80101967EDBF82E89E0F8126D
:1015600054C099E1909347029093480290934602A9
:1015700082E38093450269E0C80153D3F801EF0D7F
:10158000F11D8083198E1D86780127E088248394BD
:10159000912CC12CD12CBE2CB01AF9E0FB1528F1EE
:1015A000C4010C2C01C0880F0A94EAF7F70190815E
:1015B000AE01475E5F4FBE01635F7F4F89230CDE44
:1015C000282FFFEFCF1ADF0A88E0C816D10429F7C9
:1015D000AE01475E5F4FBE01635F7F4F81E0FCDD80
:1015E000282FEFEFEE1AFE0AD4CF222311F021505C
:1015F00004C0898D8F5F898F27E08AE0E82E03E0A1
:10160000498D6CE0CE010D9628DE69960FB6F894F0
:10161000DEBF0FBECDBFDF91CF911F910F91FF9025
:10162000EF90DF90CF90BF909F908F900895CF93D1
:10163000DF93EA98249A2C9A8EE190E0BDD92C98F9
:101640008EE190E0B9D92C9A8DE290E0B5D980E393
:101650000E941D0384E690E0AFD9C5EED1E0FE0103
:1016600031966491FE0184910E940B032296F2E070
:10167000C731DF07A1F780914A02811106C083E3D9
:101680000E941D0384E09DD90FC0CFECD1E0FE0184
:1016900031966491FE0184910E940B032296F1E041
:1016A000C53EDF07A1F7EBCF84E30E941D0385E36E
:1016B0000E94CE028D30C1F7DF91CF910895A2E351
:1016C000B0E0E5E6FBE00C9471428091490288238A
:1016D00009F49BC01A9B84C08FE30E94CE028F77CF
:1016E0008983823368F08AE30E941D0386E30E94A7
:1016F0001D038DE30E941D0384E30E941D0385C02A
:101700002C988FEF0E945E0210E08981181760F418
:1017100080E00E945E02E2E0F0E0EC0FFD1FE10FCE
:10172000F11D80831F5FF1CF80E00E945E02082FD1
:1017300080E00E945E022C9A84E30E941D0385E3F0
:101740000E94CE028D30C1F79A8126E729272A838D
:1017500022E08981E22FF0E0281768F441E050E0B0
:101760004C0F5D1FE40FF51F8081945298279083E2
:101770002F5F982FEECF81E090E08C0F9D1FE80F38
:10178000F91F80819B81982790838091120984FFA3
:1017900010C081E68CD910E08981811708F1E1E061
:1017A000F0E0EC0FFD1FE10FF11D808180D91F5F7C
:1017B000F3CF81E47CD910E08981811750F0E1E01A
:1017C000F0E0EC0FFD1FE10FF11D80813FDA1F5F9C
:1017D000F3CF8091120985FF02C0802F37DABED97E
:1017E00085E30E94CE02813029F0813161F48AE3E1
:1017F0000E941D0386E30E941D038DE30E941D03CA
:1018000084E30E941D030E94EF03E296E4E00C943F
:101810008D42A2E3B0E0EFE0FCE00C946D4241E3C6
:101820008E010F5F1F4FB801019615DA7C019C01F4
:10183000332721503109898190E02817390709F0B1
:1018400065C080914902811103C0F1DE83E0B9D8FF
:10185000DB809A8186E789278A8392E08981292F14
:1018600030E0F801E20FF31F981750F4DE01A20FE9
:10187000B31F8C9184522081822780839F5FEECF9B
:1018800080818D25808385E30E941D0385E30E946E
:10189000CE028331C1F7D4FE06C088E792D888E72C
:1018A00090D888E701C08AE08CD82C988FE70E94F6
:1018B0005E0268018C2D801B8E1530F4F60181913B
:1018C0006F010E945E02F6CF2C9A85E30E94CE0241
:1018D0008331D9F385E30E94CE02863149F48BE34C
:1018E0000E941D0386E30E941D038DE30E941D03D9
:1018F00080914902882349F084E30E941D0385E317
:101900000E94CE028D30C1F701C05CD1E296E8E0C2
:101910000C948942FC019181923731F0923559F44F
:1019200081E080934A0202C010924A0280DE81E088
:10193000809349020895933721F4CF01019669CF2E
:101940000895109249020895A0E0B0E0EAEAFCE0B0
:101950000C946942DC011092660210927B0211968F
:10196000DC901197DD0CDD0CDD0C13968C91139738
:10197000D81A8D2D97E0B92EBD0C1092670290E019
:1019800040E028E0D22ED80E71E087E057E0C12C6D
:1019900037E0E32EF12C01E010E07D1509F478C06A
:1019A000FD01EC0DF11D248130E0052E02C03595BE
:1019B00027950A94E2F721703327552311F05150EF
:1019C00002C0C39457E06B3479F4833009F079C0D6
:1019D000411108C0232B09F058C010926602909361
:1019E0007B026DC040E070C08F3F39F56634B1F4C2
:1019F000E92FF0E0E959FD4FE0810E2EE295E02558
:101A00000E2EE695E695E025EF5FE695E170CE2F88
:101A1000812CD82DC217D30741F004C0653429F4B6
:101A2000232B19F440936602DACF9F5FE92FF0E091
:101A3000E959FD4F108287E029C0232B21F166343C
:101A400069F4E92FF0E0E959FD4FA0809801082ED4
:101A500001C0220F0A94EAF72A2914C0653499F4C8
:101A6000E92FF0E0E959FD4F9701281B310987FD67
:101A70003395480102C0880C991C2A95E2F794011D
:101A80003081232B2083815001C041E07F5F85CFCF
:101A90004093660290937B02B71688F4653431F464
:101AA0008F3F21F49F5F90937B0204C08091660278
:101AB0008111F8CF81E090917B02911108C080E004
:101AC00006C08F3F09F4ACCF232B51F6DCCFCDB746
:101AD000DEB7ECE00C94854210926F00E0917E023C
:101AE0008CE1E89FF0011124E158FD4F1082089528
:101AF000DC01362F11962C911197E22FF0E050E087
:101B00009C91BF01641B750B655F7F4F6731710549
:101B1000C8F4892F90E0632F70E09C01261B370BDF
:101B2000255F3F4F2731310568F49F01280F391F8A
:101B3000640F751F261B370B255F3F4F81E0273150
:101B4000310508F080E00895FC018181843110F0B6
:101B5000C3CF0895662389F0DF01A80FB11D21E0EE
:101B600030E0038002C0220F331F0A94E2F714967C
:101B70009C911497292B14962C939381992319F0F7
:101B800091509383089597E093838F5F8183E80F4B
:101B9000F11D14820895219A29982298E9E6F0E02F
:101BA00080818061808382EC91E090931109809321
:101BB0001009EFE7F2E0148E10AE1092D3021092EB
:101BC0000A09089580911209882329F00E94A80328
:101BD0000C948F0308950C949F030895FC012181B8
:101BE00021110EC08091120931D840E265E0809148
:101BF0001009909111090E94B3050C94AE05089547
:101C000041E062E179E0019626D8DCCF08954423D3
:101C100039F04150FB01E40FF11D9081890FF7CF9E
:101C200008959C0180E0662339F06150F901E60FC8
:101C3000F11D90818927F7CF0895FC01709166020C
:101C400040E095E020E0662399F06150DF01A60FA7
:101C5000B11D3C91532F52955F702527950F772327
:101C600011F0442319F03F702327930F4F5FEBCF00
:101C7000920F30E1939FC0011124822B0895FC0143
:101C800082819381A081B181A80FB11D2C9130E098
:101C9000092E02C0359527950A94E2F72170332763
:101CA0004FEF490F4383911104C08F5F828387E018
:101CB0008383822F0895A1E0B0E0E1E6FEE00C947A
:101CC00069426C01062F10E0812C912CF12CEE243E
:101CD000E394580181E0A81AB10880169106E1F05A
:101CE000C6014983CCDF4981882391F0442349F020
:101CF000C501881999099E2D01C0990F8A95EAF7A7
:101D000006C09E2D082C01C0990F0A94EAF7F92A03
:101D10008FEF881A980AE1CF8F2D2196ECE00C9472
:101D20008542A4E0B0E0E7E9FEE00C946A421B8241
:101D300027E02C839C012C5F3F4F3A83298310922C
:101D40007B02FC012181338187E090E0831B9109B4
:101D5000F8E02F9F800D911D1124853491050CF41E
:101D600050C0912C00917B02063070F5E02EF12CD2
:101D700040E068E0CE0101969EDF9701A901495934
:101D80005D4F7A01FA018083182F012E12951025DC
:101D9000012E169516951025CE01019670DF1F5F56
:101DA00011FBAA24A0F8B12C90E0A816B90649F5B9
:101DB000CE01019664DF811124C0F701808198264D
:101DC0000F5F00937B02CECF40E068E0CE0101962A
:101DD00072DF082F182F012E12951025012E16954F
:101DE00016951025CE0101964ADF1F5F11FBCC240A
:101DF000C0F8D12C282F30E0C216D30611F481E0B0
:101E0000901280E02496EBE00C948642A4E0B0E0CF
:101E1000ECE0FFE00C946C42FC011B8287E08C83B9
:101E2000CF0104969A83898310927B02808185304A
:101E300009F050C02181338187E090E0831B910934
:101E400038E0239F800D911D11248039910509F000
:101E500041C03FE0C32E30EFD32E19E880917B02C2
:101E6000E82EF12CBB24B394B80E41E068E08F302B
:101E700078F4CE0101961FDFC80ED11CF701E95995
:101E8000FD4F1827108314E2180FB0927B02E6CFA3
:101E9000CE01019610DF8601080F111DB0927B0262
:101EA000F701E959FD4F8095808341E068E0CE015C
:101EB000019601DF90E0982F8827081B190B41E05D
:101EC00068E0CE010196F7DE282F30E081E00217AE
:101ED000130709F080E02496E9E00C948842A4E01E
:101EE000B0E0E5E7FFE00C9470421B8227E02C8312
:101EF0009C012C5F3F4F3A832983FC0121812430D0
:101F0000A1F58381813089F510927B0280917B025B
:101F1000082F10E0FF24F394F80E41E0843098F489
:101F2000811106C067E0CE010196C5DE806804C05D
:101F300068E0CE010196BFDEF801E959FD4F8083CC
:101F4000F0927B02E3CF67E0CE010196B4DEF801A8
:101F5000E959FD4F880F8083F0927B0290916702D0
:101F600092959F7081E09A3009F080E02496E5E038
:101F70000C948C42A0E0B0E0E0ECFFE00C946942ED
:101F800080914B028823B9F18091120987FF17C015
:101F900084E30E94CE028058803458F0803C58F48C
:101FA00090E08055910923E0959587952A95E1F772
:101FB00003C080E001C08FE08F590E9457058091D7
:101FC000120983FF16C082E70E945705809112090B
:101FD00084FF04C080914C020E94570586E60E944F
:101FE00057058091120984FF04C080914B020E9422
:101FF000570510924B0280917C02882309F400C29D
:10200000289AC0917D022CE1C29FE0011124C158A1
:10201000DD4FCE01FBDE811146C066E4CE0194DCCB
:10202000882339F110917B02115010937B02412FCC
:1020300067E672E086E0EBDDE12FF0E0E959FD4F65
:102040000081801302C0143080F5282F30E02F5F0C
:102050003F4F402F50E02417350721F4143010F083
:10206000808323C0412F67E672E08CE0D0DD8017CB
:1020700031F065E4CE0168DC811105C018C0143070
:10208000C0F314E502C180917B02815080937B02F2
:10209000893069F469E087E692E0C3DD90917002CF
:1020A000891305C009C013E5F0C016E4EEC0CE01E7
:1020B00038DE81110AC002C015E4E7C0CE010FDF8F
:1020C000082F882321F014E7E0C018E4DEC0D09088
:1020D0004C027E01FAE1EF0EF11C4B8D6D2DC70114
:1020E00007DD682FCE0130DD6BE4CE012DDC8823C7
:1020F000A9F0E0917B021FEF1E0F10937B02612F6E
:1021000087E692E09ADDE12FF0E090916602E91B0C
:10211000F109E959FD4F9081891741F08B81873092
:1021200039F41B8289818150898304C01BE4ADC0CE
:102130008F5F8B838981843001F58B818430E9F452
:102140004EE16CE3CE014896D3DC8823B1F04EE13A
:102150006D2DC701CDDC682FCE01F6DC802F90E01D
:10216000FC01E959FD4FDE01A80FB91F14968C91AF
:1021700080830F5F053091F785C010E080911209D0
:1021800082FF67C080E70E945705888140E262E0D5
:1021900090E00E94B305888D40E265E0F0E18F9FFA
:1021A000C00111240E94B305898D40E265E020E161
:1021B000829FC00111240E94B3058A8D40E265E030
:1021C000A0E18A9FC00111240E94B3058B8D40E2DB
:1021D00065E0B0E18B9FC00111240E94B3058A81A4
:1021E00040E263E090E00E94B305898140E263E051
:1021F00090E00E94B3059B8140E262E027E030E07E
:10220000F901E91BF109CF010E94B30580E20E94A8
:1022100057058091120985FF08C084E30E94CE0211
:102220000E94260680E20E9457058B81873019F0B4
:1022300089818F5F898300E08981081740F4FE015E
:10224000E00FF11D84810E9426060F5FF5CF0E94EA
:10225000AE05188280917C02815080937C0280912F
:102260007D028F5F843019F080937D0202C010924E
:102270007D022898143509F0C3C087E692E00E94D9
:10228000491BBEC000937B0212E54091120940FF3A
:1022900075CF942F927041FD5DC050916502009101
:1022A0007B02501333C080E0851770F4282F30E094
:1022B00061E0680FD901AF5ABD4F29593D4F7C915C
:1022C000D9012C91721729F08093650285131EC0E5
:1022D00002C0862FE9CFC0900C09D0900D09E09084
:1022E0000E09F0900F0980904D0290904E02A09040
:1022F0004F02B0905002C818D908EA08FB0821E044
:10230000B6E2CB16D104E104F10408F020E0901706
:1023100060F4692F70E0DB01AF5ABD4F69597D4F02
:10232000FB0180818C939F5FF2CF90936502809137
:102330000C0990910D09A0910E09B0910F0980939D
:102340004D0290934E02A0934F02B0935002143569
:10235000F9F403C01435F1F420E046FD19C0809172
:102360007B028530A8F0809169028B3409F446C065
:10237000893609F443C09DEA980F923008F43EC0B4
:102380008D578230D8F180916A0280778037B1F121
:102390002111F4CE812F0E94570580916602882377
:1023A00029F080917B02815080937B0200E0E091D4
:1023B0007B020E1748F4E02FF0E0E959FD4F8081D1
:1023C0000E9426060F5FF3CF80916602882351F0AA
:1023D000F0E0E959FD4F80818F7040E361E090E0CB
:1023E0000E94EA058091120985FF05C084E30E94DE
:1023F000CE020E9426060E94AE05C0CE14E5BECED7
:10240000CDB7DEB7ECE00C9485421F920F920FB669
:102410000F9211240BB60F922F933F934F935F931C
:102420006F937F938F939F93AF93BF93EF93FF939C
:1024300010926F008091120983FF03C08EE20E9408
:10244000570580917E029CE1899FF0011124E1589B
:10245000FD4F9081933018F09181923010F43CDB65
:1024600018C090917C02933049F48091120982FF48
:10247000F6CF87E192E00E94A105F1CF9F5F909394
:102480007C028F5F843019F080937E0202C010922C
:102490007E02FF91EF91BF91AF919F918F917F91BC
:1024A0006F915F914F913F912F910F900BBE0F90C5
:1024B0000FBE0F901F9018959BED980F973150F419
:1024C00096EF960F9D3130F491E0681708F090E098
:1024D000892F089580E008951F920F920FB60F92F2
:1024E00011240BB60F920F931F932F933F934F938B
:1024F0005F936F937F938F939F93AF93BF93CF938C
:10250000DF93EF93FF938091450D882321F082E0C4
:102510008093450D22C18091220D823021F483E009
:102520008093220D1AC10091840010918500E4E08F
:1025300016950795EA95E1F7C0917E028CE1C89F58
:10254000E0011124C158DD4F8881843031F40E320E
:1025500008F403C10F3448F0A4C0853031F40731CA
:1025600008F4FBC0083208F09CC01A990DC08450D2
:10257000823038F461E0CE01E7DA109285001092E3
:10258000840000934C02E9C080914C02081B009328
:102590004B02109285001092840088818450823012
:1025A00020F460E0CE01D0DAD8C082E086BB88811A
:1025B00010914C0281110FC0153608F0CEC08091E9
:1025C0004B02853608F0C9C0188F898F81E08A8355
:1025D00082E08883C2C000914B02402F612F82307D
:1025E00009F06FC0CE01489683DA882301F1888D07
:1025F00090E09C01220F331F820F931F810F911DCA
:102600009595879595958795888F898D90E09C0104
:10261000220F331F820F931F800F911D9595879571
:1026200095958795898F8A818F5F8A8396C08A81E5
:10263000843008F444C080EA9FE09093890080933E
:1026400088008A818C3050F0288D898D90E0820F2F
:10265000911D8536910524F084E026C08A3080F0F3
:10266000288D898D90E0820F911D85974CF485E02F
:10267000888388EE93E0909389008093880015C04A
:1026800080911809882379F0602F812F15DF882326
:1026900051F0688D898D10DF882329F081E08093C7
:1026A000220D1ADA5AC083E088831A8F0B8F1982A1
:1026B00087E08B831C8282E080936F004EC018827B
:1026C0007BCFCE014A9614DA882301F161E0CE0176
:1026D0003BDA8A8D90E09C01220F331F820F931FFB
:1026E000810F911D95958795959587958A8F8B8DEF
:1026F00090E09C01220F331F820F931F800F911DCA
:1027000095958795959587958B8F27C0402F612F3D
:10271000CE014896EDD9882309F4C3CF60E0CE01FD
:1027200013DA288D30E0C901880F991F280F391F4F
:10273000210F311D3595279535952795288F898D42
:1027400090E09C01220F331F820F931F800F911D79
:102750009595879595958795898FFF91EF91DF9155
:10276000CF91BF91AF919F918F917F916F915F9129
:102770004F913F912F911F910F910F900BBE0F9092
:102780000FBE0F901F901895E0917E028CE1E89F9C
:10279000F0011124E158FD4F8081811107C081E0D3
:1027A0009091440D9F3F19F480E0089581E00895D1
:1027B00080E690E00E94C3068093180981E690E0CD
:1027C0000E94C30680932C0D882321F081E2809320
:1027D0001209F8C90895299A0C94DC0408952998DF
:1027E0000C94DC040895A7E0B0E0E9EFF3E10C9469
:1027F0006D4290912409943559F42091250D309122
:10280000260D2F5F3F4F3093260D2093250D3EC0A0
:10281000963459F42091230D3091240D2F5F3F4FB2
:102820003093240D2093230D31C0953459F4209119
:102830001509309116092F5F3F4F309316092093E9
:10284000150924C09B3459F42091280D3091290D8D
:102850002F5F3F4F3093290D2093280D17C09834D8
:1028600059F420912A0D30912B0D2F5F3F4F30935B
:102870002B0D20932A0D0AC02091130930911409C1
:102880002F5F3F4F309314092093130995E79983E5
:10289000882391F0BE016E5F7F4F80912C0D0E94C6
:1028A000AB06BE016C5F7F4F809118090E94AB069A
:1028B00085E58E8316E001C011E00E94A8030E9406
:1028C0007D0306E080E891E086DF80E093E087DF2B
:1028D0000150C1F780E093E07EDF80E891E07FDF88
:1028E00080E891E078DF299887E390E00E94210357
:1028F00083E00E94E1042C988FE70E945E028091A1
:102900001D09810F0E945E02CE0101966C017C01BF
:10291000F70181917F010E945E028E2D8C19811733
:10292000B8F380911D0990911E09892B39F089E136
:1029300099E00E94CC080E945E02F3CF2C9A0E947C
:102940007D0389E199E00E94A50815E18AE30E94D0
:10295000CE028F7731F0115021F081E00E94E10426
:10296000F5CF30D92796E8E00C948942CF93DF93D6
:10297000EC018981811107C0809118090E94260607
:1029800080912C0D13C08436A1F480910C09909194
:102990000D09A0910E09B0910F0940E364E00E9477
:1029A000EA058EE20E9457058091210D0E942606BD
:1029B0004DC0833709F04DC040E361E08091250DA3
:1029C0009091260D0E94EA058EE20E94570540E391
:1029D00061E08091230D9091240D0E94EA058EE222
:1029E0000E94570540E361E0809115099091160916
:1029F0000E94EA058EE20E94570540E361E0809163
:102A0000280D9091290D0E94EA058EE20E9457053B
:102A100040E361E080912A0D90912B0D0E94EA0520
:102A20008EE20E94570540E361E080911309909186
:102A300014090E94EA058EE20E94570540E361E016
:102A400080911F0D9091200D0E94EA050E94AE0515
:102A50002CC08936D9F441E068E179E0CE010296D4
:102A60000E942B066091180980E690E00E94BE0645
:102A700041E06CE27DE0CE0104960E942B0660915D
:102A80002C0D81E690E00E94BE060FC089E199E01E
:102A90000E94A50821966991662329F089E199E0B1
:102AA0000E94AD08F8CF80E09EDEDF91CF910895BF
:102AB000A1E0B0E0EEE5F5E10C946D428091220DCD
:102AC000882309F48DC0C0900C09D0900D09E090C6
:102AD0000E09F0900F09833009F069C08FE30E945E
:102AE000CE02182F8630C8F08CE491E10E94A50830
:102AF0002C988FEF0E945E0280E00E945E02082FF9
:102B0000115049F080E00E945E02682F8CE491E150
:102B10000E94AD08F5CF2C9A01C000E053D8109266
:102B2000220D053709F05CC041E0BE016F5F7F4FA9
:102B300082E591E10E942B060197A1F59981809190
:102B4000180998132FC080915611853581F4809112
:102B5000501190915111892B39F08CE491E10E9430
:102B6000CC080E945705F3CF0E94AE0539C0809172
:102B700050119091511104979093511180935011DD
:102B800084E090E090934F1180934E116AE08CE4C2
:102B900091E10E94AD08E0910809F091090988E0EF
:102BA00009951EC08CE491E10E94A50819C08230ED
:102BB00051F4809117099C2D981B983088F002D809
:102BC0001092220D0DC0813059F487E390E00E94ED
:102BD00021030E948F0382E08093220DC092170987
:102BE0002196E8E00C948942CFDD882361F083E0F0
:102BF0008093270D80911F0D9091200D0196909349
:102C0000200D80931F0D8091270D81508093270DFB
:102C1000882321F083E08093210D089581E0E3CDA6
:102C20000895CF93DF93EA98249A2C9A8EE190E04E
:102C30000E94DC042C988EE190E00E94DC042C9A27
:102C40008DE290E00E94DC0480E30E941D0384E694
:102C500090E00E94DC04C7E3D2E0FE01849181345D
:102C600040F083E30E941D0384E00E94E104CFEF63
:102C70000BC0FE01319664910E940B032296F2E094
:102C8000C337DF0751F7EDCF84E30E941D038AE0CD
:102C900090E00E94DC04C150B9F781E08093EF021C
:102CA000DF91CF9108954F925F926F927F928F92B2
:102CB0009F92AF92BF92EF92FF920F931F93CF9389
:102CC000DF937C01EB01FC0110811F5F209719F459
:102CD00020E030E002C024E630E0F8E01F9FC001B1
:102CE00011246AE070E00E942E42620F731F4B01B4
:102CF000AA2497FCA094BA2C8091100990911109F4
:102D00002C01612C712C481459046A047B0428F4AA
:102D100087E292E00E94A105D3C0861B970B909397
:102D20001109809310098091EF02811101C079DFB0
:102D300085E30E94CE028D3071F08AE50E9457052E
:102D400085E40E94570582E50E94570582E50E94AE
:102D5000570581E34BC08091F0029091F102A09160
:102D6000F202B091F302892B8A2B8B2B49F50E943A
:102D70007D0385E30E94CE02833109F442C08AE5D7
:102D80000E94570585E40E94570582E50E94570579
:102D900082E50E94570582E329C040910C095091B9
:102DA0000D0960910E0970910F090196A11DB11DC9
:102DB000481759076A077B07D1F681E00E94E104B2
:102DC00040910C0950910D0960910E0970910F0905
:102DD0008091F0029091F102A091F202B091F30281
:102DE000481759076A077B07C1F6E7CF0E945705C6
:102DF00085E30E94CE020E9426060E94AE0511DFE6
:102E00005FC0CD2B41F42C988FE70E945E020E2DFF
:102E1000C02FDF2D08C0CAE0D0E084E60E94E104A4
:102E20002197D9F7F0CF8C2F801B811720F489913F
:102E30000E945E02F8CF2C9AC8EC85E30E94CE0275
:102E40008D30E9F485E30E94CE028D3019F18AE5D8
:102E50000E94570585E40E94570582E50E945705A8
:102E600082E50E94570583E30E94570585E30E948F
:102E7000CE020E9426060E94AE05D3DE0BC085E37B
:102E80000E94CE028331F1F681E00E94E104C1503C
:102E9000A1F6D8CF8091EF02811102C00E94E20D0D
:102EA00080910C0990910D09A0910E09B0910F0924
:102EB0008093F0029093F102A093F202B093F30298
:102EC000DF91CF911F910F91FF90EF90BF90AF9046
:102ED0009F908F907F906F905F904F900895ACE09F
:102EE000B0E0E5E7F7E10C947242FC018BE08983E6
:102EF00081818A831B8282E08C8387818D83808598
:102F00008E8381858F838481888785818987868167
:102F10008A871B861C8684E10E94E10460E070E0E1
:102F2000CE010196C0DE8AE50E94570510E0812F90
:102F300090E0298130E0281739075CF0E1E0F0E00B
:102F4000EC0FFD1FE80FF91F80810E9426061F5F0E
:102F5000EECF8091120985FF03C080E00E94260613
:102F60000E94AE052C96E3E00C948E42CF93DF9343
:102F7000EC019091F702911108C08091F802811143
:102F800004C08091F902811115C08B81803319F042
:102F90008F7E803479F48F8189130CC0988580915D
:102FA000F802981307C099858091F902981302C01E
:102FB000CE0195DF8091F402811108C09091F50255
:102FC000911104C09091F6029923A9F098819B3049
:102FD00091F49B81903479F49F8198130CC098856B
:102FE0008091F502981307C099858091F602981395
:102FF00002C0CE0174DFDF91CF910895AEE1B0E061
:10300000E4E0F8E10C9471428091EF02882309F426
:1030100069C01A9B59C08FE30E94CE028F778E3110
:1030200008F08DE189832C988FEF0E945E0210E0FA
:103030008981181760F480E00E945E02E2E0F0E00F
:10304000EC0FFD1FE10FF11D80831F5FF1CF80E0CA
:103050000E945E02082F80E00E945E022C9ACE0140
:10306000019684DF8091120984FF12C08AE70E94D2
:10307000570510E089818117A8F1E1E0F0E0EC0F3D
:10308000FD1FE10FF11D80810E9457051F5FF2CFE8
:103090008AE50E94570510E08981811758F0E1E028
:1030A000F0E0EC0FFD1FE10FF11D80810E9426066C
:1030B0001F5FF2CF8091120985FF03C0802F0E940D
:1030C00026060E94AE050EC085E30E94CE02813125
:1030D00049F48AE30E941D0386E30E941D0384E3F2
:1030E0000E941D036E96E4E00C948D42AEE1B0E0C8
:1030F000ECE7F8E10C9471428C01FC01818182378C
:1031000011F48FDD36C0833711F0863601F54DE1BD
:10311000BE016F5F7F4FC80102960E942B06992760
:103120000197298130E08217930729F08EE192E020
:103130000E94A1051EC061E070E0F8018181833723
:1031400011F060E070E0CE010196ADDD12C0813675
:1031500021F443E067EF72E005C0873741F443E0B4
:1031600064EF72E0C80102960E942B0602C0109222
:10317000EF026E96E4E00C948D4210922F0D1092A7
:10318000B00383E08093FA028FEF8093440D08959B
:10319000EBEFF2E02081211105C0892BB1F080E036
:1031A00090E00895B3E0E93AFB07B8F7009751F0D3
:1031B0004181DC013C91431305C0428111963C9151
:1031C000431751F0E20FF11DE5CF33E0E93AF30781
:1031D00019F010F0E9EAF3E0CF0108958AEA93E0EC
:1031E000D7DF009799F02091FA02FC013081231774
:1031F00068F4E20FF11D80818093AC0389E780932E
:10320000AD0381818093AE0381E0089580E008954D
:103210000F931F93CF93DF932091120926FF16C0BF
:103220008C0184E50E945705E8010B5F1F4F8991CF
:103230000E942606C017D107D1F78091120985FF99
:1032400003C08AEF0E9426060E94AE05DF91CF914F
:103250001F910F91089586E30E941D038091AC0396
:10326000833511F08BE401C08BE90E94E10421E079
:103270004CE065E08AEA93E00E94D1090E948F0346
:103280008AEA93E0C5CF0895E6DF8091AC038936E2
:1032900031F081E08093A90389E28093440D089581
:1032A00085E390E00E94C30680932D0D86E390E0B5
:1032B0000E94C3068093430DE3E3FDE08FEF80831C
:1032C000828384838683808782878487868755DF8D
:1032D0001092FB020895AF92BF92CF92DF92FF92BD
:1032E0000F931F93CF93DF93CDB7DEB727970FB61A
:1032F000F894DEBF0FBECDBF8C015C013FEFA31A77
:10330000B30A45E0BE016F5F7F4FC5010E942B06E7
:10331000843008F0B6C099819130A9F4833061F40B
:103320006A8185E390E00E94BE066B8186E390E0AF
:103330000E94BE06B5DF2EC180912D0D0E9426068B
:103340008091430D99C0923009F055C0813049F009
:1033500091E080E02A81213009F090E0C92ED82E3A
:1033600003C0CC24C394D12C8091FB02811104C0F2
:1033700083E792E00E94A1050BEF12E0F801808143
:10338000882309F47BC0F3E0093A1F0708F076C0F0
:1033900082E00B3F180719F080E20E945705F80100
:1033A00081810E942606F80182810E942606C114AE
:1033B000D104E1F08AE30E94570593E0F80180818F
:1033C0009817A0F4943038F090FF05C08CE29F83EA
:1033D0000E9457059F81FF24F394F90EF801E90F2D
:1033E000F11D80810E9426069F2DE8CFF801808183
:1033F000080F111DC3CF933049F480E090E0C8DE80
:103400008B5F92409EEA981B892F36C0903149F518
:1034100003E31DE0D12CF12CF80180818F3FA1F056
:10342000FF2019F080E20E9457058D2D0E9426068C
:103430008AE30E945705F80180810E942606F80160
:1034400081810E942606F3940E5F1F4FD394F8E00B
:10345000DF12E2CFF11012C08DE792E00E94A105C9
:103460000DC0913159F48091310D9091320D6DE77D
:1034700070E00E941A42862F0E9426060E94AE0526
:1034800089C0E98180912D0DE817C8F190E0F0E046
:103490009C01295F3F4F2E173F078CF13A81209105
:1034A000430D32132CC02C812F3231F442E06CE0FA
:1034B000C8010E943E0A6EC02C32B9F42D812093BF
:1034C000300D81E090E09093320D8093310D80912A
:1034D00010099091110934E0239F800D911D112452
:1034E000909311098093100955C0E81BF90BEE0F5A
:1034F000F0E0ED5CF24F20838D8181834BC080E052
:1035000090E046DE6C01F50101900020E9F731976B
:10351000EA19FB09F695E795FF24F394FE0EC60120
:103520008F0D911D8B5F92408F3A91057CF5F601CE
:10353000F1925F0121E0822F880F81502F15E0F476
:1035400041E0B501F801E80FF11DCF012F830E9482
:103550002B062F81233058F020FD09C0F50131974B
:103560008081843621F4F501808180932E0D2F5FB8
:10357000FFEFAF1ABF0ADFCF39EAC31633E0D30635
:1035800048F4F601E20FF11D108204C087E792E0D3
:103590000E94A10527960FB6F894DEBF0FBECDBFDF
:1035A000DF91CF911F910F91FF90DF90CF90BF904F
:1035B000AF900895A6E0B0E0E0EEFAE10C946F421F
:1035C0008091430D8A831B829091300D992341F0A5
:1035D000933019F08DE790E010C087E791E00DC0BF
:1035E000877090E08A519F4F4DE7489F9001499F17
:1035F000300D1124C901959587959093320D8093D4
:10360000310D83E3E82E8DE0F82E10E00CE2F70197
:1036100090819F3FC1F080912D0D810F8983809112
:10362000300D882311F00C8303C09C83F701818146
:103630008D8321E04CE065E0CE0101960E94D10926
:10364000CE010196E5DD1F5FF2E0EF0EF11C1830B0
:10365000F1F68091300D882341F0833019F41092F7
:10366000300D03C082508093300D2696E6E00C9416
:103670008B428091A903882351F0EDDD89E280938C
:10368000440D8091A90381508093A903089575CDBD
:103690000895FF920F931F93CF93DF93FC01F08067
:1036A0000181C281D38114818FE58093440D1092F2
:1036B000A90380912D0D811105C08091430D8823B0
:1036C00009F4A9C08091AA038F1104C08091AB03B3
:1036D000801729F052DDF092AA030093AB0380918A
:1036E0002F0D8F3F09F497C0C093AC03D093AD0367
:1036F0001093AE03CC23F1F081111CC080912D0DED
:10370000181761F0143651F08DEA8C0F823010F0EA
:10371000CD3739F48FEF80932F0D7DC0C43509F478
:103720007AC08D2F807F803609F075C0D067D09326
:10373000AD0357C053DD811105C080912F0D882343
:1037400009F469C08091B003811107C0E0912F0D89
:10375000F0E0EF57FD4FE49101C0E82FE33541F46D
:10376000C43531F490912F0D9E5F90932F0D04C0BE
:10377000EC1711F002DD4FC0882369F08091FA0246
:103780008E5F8093FA022ADD81110EC080912F0D89
:103790008E5F80932F0D80912F0DE82FF0E0EE5774
:1037A000FD4FC491CF3F59F48091AC038093B00397
:1037B0008436B9F480912E0D8093AE0312C0C0936D
:1037C000AC0397E79093AD0390912D0D9093AE03CA
:1037D0008E5F80932F0D1092B0038E3021F0CC239A
:1037E000D1F052DD18C08AEA93E0D2DCFC010097E8
:1037F00081F0808190E029EA33E0281B390BE21741
:10380000F30730F4DF01A80FB91F4C914193F7CFB4
:103810001082B3DCE4CFCDB7DEB7E5E00C948C4288
:10382000FF920F931F93CF93DF93EC01FC01019064
:103830000020E9F731978F01081B190B8981823726
:1038400051F487E390E00E9421030E948F0381E0FE
:103850008093450D26C0833711F5F02E2C988FE705
:103860000E945E028EEF800F0E945E02229612E09E
:103870001F1528F489910E945E021F5FF9CF2C9AD0
:103880000E947D038AE30E94CE028F7729F084E6AE
:1038900090E00E94DC04F6CF0E948F0302C01092D9
:1038A000450DCDB7DEB7E5E00C948C42A0E0B4E066
:1038B000ECE5FCE10C946D428091450D882309F400
:1038C00052C0813011F580910C0990910D09A091A1
:1038D0000E09B0910F092091B103281709F443C0D4
:1038E00085E30E94CE02813129F48AE30E941D0300
:1038F0000E948F0380910C0990910D09A0910E09EF
:10390000B0910F098093B1032EC08FE30E94CE02C5
:10391000D82E2C988FEF0E945E028E010F5F1F4FF2
:103920007801C02E8E2D801B8D1538F480E00E940A
:103930005E02F70181937F01F5CF2C9A81E080939D
:103940004302802F8C198D1530F4F80181918F017D
:103950000E945705F6CF0E94AE058FEF8093430279
:1039600081E08093450DDC5FE8E00C948942209172
:10397000401D3091411D2115310521F42091220176
:10398000309123018091200190912101009741F411
:103990008DB79EB74091240150912501841B950B52
:1039A0002817390718F4821B930B089580E090E0E4
:1039B000089582E40E94570540E265E08091401D31
:1039C0009091411D0E94B3050E94AE0583E50E94BF
:1039D000570540E265E080912201909123010E9409
:1039E000B3050E94AE0585E40E94570540E265E0FC
:1039F00080912001909121010E94B3050E94AE05A3
:103A000086E40E945705B3DF40E265E00E94B305FB
:103A10000C94AE0508951F920F920FB60F921124C9
:103A20000BB60F922F933F934F935F936F937F93B8
:103A30008F939F93AF93BF93EF93FF9380914A0D22
:103A400090914B0D892B39F086E49DE00E94CC08C3
:103A50008093C60005C08091C1008F7D8093C10016
:103A6000FF91EF91BF91AF919F918F917F916F9156
:103A70005F914F913F912F910F900BBE0F900FBE12
:103A80000F901F9018951F920F920FB60F9211244E
:103A90000BB60F922F933F934F935F936F937F9348
:103AA0008F939F93AF93BF93EF93FF9395B181E073
:103AB000892785B96091C6008091C000887121F482
:103AC0008CE491E10E94AD08FF91EF91BF91AF911D
:103AD0009F918F917F916F915F914F913F912F9126
:103AE0000F900BBE0F900FBE0F901F90189597FF71
:103AF00004C022E02093C0009F779093C50080937C
:103B0000C40088E98093C10086E08093C2000895D4
:103B10008091C10085FD0BC080914A0D90914B0DA5
:103B2000892B29F08091C10080628093C1000895A3
:103B3000E0910809F091090981E00995E9CF08951C
:103B40000F931F93CF93DF938C01D0E02D2F30E0A4
:103B5000F901EE0FFF1F2E0F3F1FF901E456FF4F33
:103B6000C49123563F4FF90145915491CC23A9F0BC
:103B70000115110539F480E20E9457058C2F0E942F
:103B8000570509C0F80180818C1305C0C801FA01EE
:103B9000099581E003C0DF5FD9CF80E0DF91CF914D
:103BA0001F910F910895CF93C091430280934302D8
:103BB0008091501190915111892B91F18CE491E1F8
:103BC0000E94CC08E091B2038A3011F08D30F9F4F4
:103BD000EE2371F3F0E0ED54FC4F108283EB93E0A1
:103BE000AFDF811111C087EA92E00E94A10583EB4B
:103BF00093E00E9496058FE892E00E94A10580E084
:103C000090E09EDF0E94AE051092B203D1CF91E00A
:103C10009E0F9093B203F0E0ED54FC4F8083C8CF29
:103C2000C0934302CF9108950F931F93CF938C01BC
:103C3000C6E0C15058F0F80181918F010E9426061C
:103C4000CC23B9F38AE30E945705F3CFCF911F919C
:103C50000F910895EF92FF920F931F93CF93DF93ED
:103C6000EB01FC01E080F180FE24EF24FE240281C0
:103C700013811027012710276F2DCE010E94BE0649
:103C80006E2DCE0101960E94BE06612FCE010296D6
:103C90000E94BE06602FCE0103960E94BE06CDB7DD
:103CA000DEB7E6E00C948B42A5E1B0E0EAE5FEE188
:103CB0000C94714289E68A8384E68B8361EF72E01B
:103CC000CE0104960E94A042CE0101960E9469078F
:103CD00081E68B8363EE72E0CE0104960E94A042DF
:103CE000CE0101960E9469078EE68B8365ED72E036
:103CF000CE0104960E94A042CE0101960E9469075F
:103D000087E68B8369EC72E0CE0104960E94A042A4
:103D1000CE0101960E94690780E78B8364EC72E014
:103D2000CE0104960E94A042CE0101960E9469072E
:103D30008EE48B836CEB72E0CE0104960E94A0426D
:103D4000CE0101960E9469078FE68B8369EB72E0D2
:103D5000CE0104960E94A042CE0101960E946907FE
:103D60008AEF9FE00E94C306843A71F58BEF9FE0D3
:103D70000E94C306803541F58CEF9FE00E94C30688
:103D8000853511F58DE68B8362EB72E0CE010496EA
:103D90000E94A0428DEF9FE00E94C306BE01665FB5
:103DA0007F4F0E94AB068EEF9FE00E94C306BE01CC
:103DB000645F7F4F0E94AB068FEF9FE00E94C306B7
:103DC000BE01625F7F4F26C08DE68B836BEA72E097
:103DD000CE0104960E94A042E0E0F0E000E010E096
:103DE00091E2909357008491080F111D3196E032B3
:103DF000F105B9F7BE01665F7F4F80E00E94AB0618
:103E0000BE01645F7F4F812F0E94AB06BE01625FDF
:103E10007F4F802F0E94AB06188ACE0101960E9428
:103E200069076596E4E00C948D422FD586E595E10F
:103E30000E94692E892B09F438C086E595E10E941D
:103E40005F2E8FE695E190936E1580936D1582E05D
:103E500097D68091601590916115892B19F00E9479
:103E60005F2D43D485E79CE190936A158093691593
:103E700085E086D68091601590916115892B19F0A7
:103E80000E945F2D32D484EA9CE190936A1580935E
:103E9000691585E075D68091601590916115892B23
:103EA00019F00E945F2D21D419D582E595E10E9479
:103EB000692E892B31F082E595E10E945F2E0C94EA
:103EC000952C0895A0E0B0E0E8E6FFE10C946D4287
:103ED0007C01EB01CB010E94C3066E018FEFC81A73
:103EE000D80AC6010E94C306082FCE010E94C3064D
:103EF000182FC6010E94C306212F30E0C901902B64
:103F0000F701918380838E010E5F1F4FC8010E94CD
:103F1000C3062396CE010E94C306D82EC8010E9474
:103F2000C306182FCE010E94C306212F30E03D2981
:103F3000F70133832283CDB7DEB7E8E00C948942E2
:103F4000A4E0B0E0E6EAFFE10C94734269E670E0B9
:103F5000CE010196B7DFE1E9F6E189819A8191838B
:103F600080838B819C819383828361E770E0CE01A3
:103F70000196A8DFE9E8F6E189819A81918380833F
:103F80008B819C81938382836DE670E0CE010196E4
:103F900099DFEDE8F6E189819A81918380838B81B5
:103FA0009C819383828386E794E09BD349D10E94CE
:103FB000EC302496E2E00C948F42549A5C9888ECA2
:103FC0000E94E1045C9A88EC0E94E10470D382E6CE
:103FD00090E00E94C3068093B60783E690E00E94BB
:103FE000C3068093B70784E690E00E94C3068093DF
:103FF000B80785E690E00E94C3068093B90786E67D
:1040000090E00E94C3068093BA0787E690E00E9482
:10401000C3068093BB0786EB97E04BD38091B6072E
:104020008093BD078091B7078093BE078091B80742
:104030008093BF078091B9078093C0078091BA072A
:104040008093C1078091BB078093C207FDD4109273
:104050005608109255086FE170E086E595E10E94E0
:10406000532E62EE74E082E595E10E94532E88E6BD
:1040700090E00E94C306882351F086EA94E031D391
:1040800086EB97E00E94B8301092B507089582E061
:104090008093B50755CF08950F931F93CF93FC01DD
:1040A0008181893611F489DF2DC08336D1F401E98D
:1040B00016E1C4E0C15070F0F80181918F0140E237
:1040C00061E090E00E94B305CC23A1F38EE20E9450
:1040D0005705F0CF80E20E9457058DEB97E0A4DDF5
:1040E0000AC0843659F48091B4078F5F837080933F
:1040F000B4070E9426060E94AE0504C08E3611F455
:104100000E94CD32CF911F910F910895CF93DF93ED
:10411000EC01009711F414DF3CC069E670E04696AC
:1041200099DD8E899F899093921680939116888D40
:10413000998D909394168093931661E770E0CE0169
:10414000829688DD8AA19BA190938A168093891616
:104150008CA19DA190938C1680938B166DE670E0D8
:10416000CE014A9677DD8A8D9B8D90938E16809333
:104170008D168C8D9D8D9093901680938F16EB816C
:10418000FC811582148286E794E0ABD259D00E945C
:10419000EC30DF91CF910895E0916D15F0916E159F
:1041A0002481358180915A1590915B152817390724
:1041B00009F46BC008958091B507823029F00E9400
:1041C000882F8093B5070895E0916915F0916A15DD
:1041D000309759F08091681581FF07C084819581DF
:1041E00081159B4711F40C94FD3208951F93CF93D2
:1041F000DF93C0916D15D0916E1580914A0D90910D
:104200004B0D892BC9F08D8D8A3F49F482E0B8D4DB
:104210000E945F2D6AD282E00E94E10406DE1D8DBD
:1042200081E0810F8D8F86E49DE00E94CC08FE0125
:10423000E10FF11D868FE1CFDF91CF911F9108959E
:1042400089E790E00E94D342982789279827909386
:104250005B1580935A1583D410925D1510925C15EE
:104260000895E0918C15EA3F40F491E09E0F909301
:104270008C15F0E0E159FA4E868F0895E0916D15A6
:10428000F0916E1582E0848F08950F931F93CF9362
:10429000DF93E0916D15F0916E158091681586FFA2
:1042A00015C0158E91E0948F20915C1530915D15AD
:1042B000A9014F5F5F4F50935D1540935C15232B11
:1042C00029F490914302946090934302948D92302C
:1042D000B9F481E0848F80E18093681580915C154A
:1042E00090915D15019790935D1580935C15892BD6
:1042F00009F05BC0809143028B7F8093430255C0DD
:10430000982F907311F487FF02C0158E148E81FFD1
:104310002EC0C0916015D0916115209741F1909108
:104320006B1580916C1526EF30E2309307092093CE
:104330000609092F182FF80161918F018CE491E192
:104340000E94AD08809150119091511181159440B7
:1043500031F4E0910809F091090984E00995219769
:1043600051F7E0910809F091090984E009958091DD
:1043700068158F74D1F0C0916D15D0916E154D8D6B
:10438000442399F050E0BE01625E7F4F80916B152F
:1043900090916C150E94B4426D8D70E080916B1508
:1043A00090916C150E94FD2B1D8EDF91CF911F9176
:1043B0000F91089514988AE30E94383380E00E9498
:1043C0003833149A0895CF93C82F14988AE70E941F
:1043D00038338C2F0E943833149ACF910895CF939D
:1043E000C82F40EA63E08FE19BD06C2F637040E8F8
:1043F0008FE196D0C093BC07CF910895CF93DF9300
:10440000C82FD82FDF71DB3180F4282F207630E0E1
:10441000C90125E0959587952A95E1F74091BC075C
:1044200050E08417950709F0DADF14988D2F0E9469
:10443000383380E00E943833C7FF03C080E00E9419
:104440003833149ADF91CF91089514988FEF0E941A
:1044500038338DE1D3DF80FFFCCF149A0895CF93DA
:10446000DF93D62FC82FCF71CB3180F4282F207641
:1044700030E0C90125E0959587952A95E1F74091AF
:10448000BC0750E08417950709F0A9DF14988C2F1A
:1044900080640E9438338D2F0E943833149ADF9144
:1044A000CF910895A1E0B0E0E8E5F2E20C94734208
:1044B000682F80E09983D3DF9981692F81E0CFDF76
:1044C0002196E2E00C948F42A1E0B0E0EAE6F2E24D
:1044D0000C947342682F82E09983C1DF9981692F20
:1044E00083E0BDDF2196E2E00C948F42A1E0B0E0D2
:1044F000ECE7F2E20C947242162F682F84ED798378
:10450000AEDF612F86EDABDF7981672F87EDA7DF07
:104510008AEE74DF80FDFCCF2196E3E00C948E429E
:10452000A1E0B0E0E6E9F2E20C947142162F082F08
:104530000F710B3190F4282F207630E0C90125E06F
:10454000959587952A95E1F7E091BC07F0E08E17E5
:104550009F0719F0498343DF49811498802F842BEA
:104560000E943833812F0E943833149A2196E4E058
:104570000C948D42CF93682F84ED71DF40E861E0A9
:1045800082EDCEDF8AEE3ADF80FDFCCF40EA61E0CB
:1045900082EDC6DF88ED32DFC82F89ED2FDF2C2FAB
:1045A00030E0A901582BCA01CF9108950C9A149AB2
:1045B0004CDF60E088E053DF60E089E050DF6FEFC0
:1045C0008AE04DDF6FE08BE04ADF60E084E047DFA8
:1045D00060E185E044DF60E08CE041DF60E08DE099
:1045E0003EDF60E08EE03BDF60E08FE038DF10927E
:1045F0005F1510925E1540EA60E881EC91DF40E8BB
:104600006DE080EC8DDF40E862E382EC89DF60E002
:1046100070E080E06BDF80E0ADDF90FF06C040E837
:1046200061E082EC7DDF62E105C040EA61E082EC9E
:1046300077DF65E184EC13DF62E186EC10DF6CE08C
:1046400087EC0DDF60EE8AEC0ADF65E08BEC07DFBC
:104650006091BD0784EE03DF6091BE0785EEFFDE4B
:104660006091BF0782EEFBDE6091C00783EEF7DE4C
:104670006091C10780EEF3DE6091C20781EEEFDE4C
:1046800063E888E3ECDE62E17CE084E12FDF6BED40
:104690008BE1E5DE62E170E082E128DF40E864E082
:1046A0008FE13EDF40E860E88EE13ACF08957ECFAB
:1046B0000895CF93DF93EC01688184EED0DE6981A9
:1046C00085EECDDE6A8182EECADE6B8183EEC7DEC7
:1046D0006C8180EEC4DE6D8181EEC1DEDF91CF9111
:1046E0000895BC0184E102CF0895CF93DF93C4E61F
:1046F0008FE184DE83FF03C0C150D0F702C0CC231A
:1047000091F160E084E0ABDE60E185E0A8DE6091DD
:10471000601586E0A4DE8091601590916115905F30
:10472000692F87E09CDE80E090E1CEDE80E04BDE0A
:10473000C5E9D6E12091601530916115CE0185590A
:1047400096418217930718F489913DDEF3CF40E834
:1047500060E88FE1E5DE40EA60E88FE1E1DE40E815
:1047600068E08FE1DDDEDF91CF910895A4E0B0E055
:10477000ECEBF3E20C946F4289E340DE882309F40A
:104780007EC080915E1590915F158CDE13DE182F30
:1047900011DE212F30E0382B30935F1520935E150A
:1047A0008E010F5F1F4F94E0F92EF00E03DEF8012B
:1047B00081938F01FE12FACF89819A818C01045076
:1047C00011091A83098342978F3C954028F485E9A3
:1047D000E82E86E1F82E02C0E9DE51C0C7018559F6
:1047E00096418017910728F4E5DDF70181937F0159
:1047F000F5CF10936115009360158091A1169091EB
:10480000A2169827892798278115F8E09F0761F05D
:1048100086309840A1F40E94BF2C80916015909141
:104820006115892B61F00AC081E0AAD180916015E1
:1048300090916115892B19F00E945F2D56DF6091D0
:104840005E1570915F15CB0101978115904128F09D
:104850006FEF8CE004DE6FE009C061508CE0FFDD9B
:1048600080915E1590915F150197692F8DE0F7DDBE
:1048700040E860E48EE154DE81E090E002C080E038
:1048800090E02496E6E00C948B42CF9389E3B6DD6A
:10489000882311F18CE1B2DDC82F40EA60E88BE19A
:1048A0003FDEC3FF08C040EA68E08CE139DE40EA41
:1048B0006AE08DE135DE5ADFC0FF04C040EA61E006
:1048C0008CE12EDEC1FF04C040EA62E08CE128DE0C
:1048D00040E860E88BE124DECF91089582EC8EDD24
:1048E0008273823311F062CE089580EC87DD8D30C3
:1048F000D1F70895FB0141505109460F571FE417A6
:10490000F50778F4208130E0322F22276181260FCD
:10491000311D820F931F8217930708F40196329678
:10492000EECFE417F50751F4208130E0322F222733
:10493000820F931F8217930708F401960895FC01D4
:104940002381260F20936715A72FBB2792819A0FEB
:1049500090936615318130936515408140936415BD
:10496000E92FF0E0EA17FB0748F481E0830F80931A
:104970006515811103C04F5F4093641530E07727C0
:104980002617370788F49F5F9093661591110CC026
:10499000809165158F5F80936515811105C08091A9
:1049A00064158F5F80936415089520916D15309183
:1049B0006E15BC01C9010896C2DFE0916D15F0913A
:1049C0006E15A4E6B5E18C91808711968C911197B4
:1049D000818712968C911297828713968C91838788
:1049E000089544E150E063EA76E180E090E082DF00
:1049F000009721F098278927982708958FEF9FEF38
:104A00000895CF93DF93C091A516D0E0DC2FCC277B
:104A10008091A616C80FD11D48E050E06FEA76E1FC
:104A2000CE010E9767DFAE014451510967EB76E185
:104A300061DF009721F098278927982702C08FEF20
:104A40009FEFDF91CF9108951092881610928716EC
:104A50001092881580E09FE2989FF0011124EB5896
:104A6000F34E15821482811102C081E0F5CF82E0FD
:104A70008093C60708950F931F93CF93DF93DC01B4
:104A80002091C7073091C807E091791CF0917A1CFA
:104A90004091A81C5091A91C2F5F3F4F21158DE715
:104AA000380710F020E030E1922F832FE817F90744
:104AB00099F34817590781F33093C8072093C70724
:104AC00090E08FE29230D1F0292F30E041E0490FA1
:104AD000829FF001839FF00D1124EB58F34EEF01FC
:104AE000249604811581012B39F49093C6073097E1
:104AF00041F480E090E02EC0942FE4CF9093C6075D
:104B0000F8CF8091C7079091C807982789279827E1
:104B10009983888377836683109729F410821182A2
:104B2000128213820BC08D919C9111979183808387
:104B300012968D919C911397938382838FE2829F2B
:104B4000D001839FB00D1124AB58B34E80E418966A
:104B50008C93CF01DF91CF911F910F9108952091F8
:104B6000871630918816232B39F41092C60790933C
:104B7000881680938716089581E08093C60708956C
:104B8000EF92FF921F93CF93DF93C0916D15D09159
:104B90006E15843009F49FC12BEC36E130936C150F
:104BA00020936B153093631520936215833059F46D
:104BB000898D8F70833009F010C688899989892B77
:104BC00009F00BC676C0823009F078C08091CC071E
:104BD0008F5F8093CC07811113C08091CB078F5FCB
:104BE0008093CB0781110CC08091CA078F5F80939F
:104BF000CA07811105C08091C9078F5F8093C907DB
:104C000010926115109260151092741C1092731C12
:104C1000898D982F9D7F953041F48A8D8F5F8A8F83
:104C2000883709F0DAC5198ED8C5882309F4D5C5A7
:104C300028893989232BC9F19A8D2FEF290F2A8FC3
:104C40009111CBC59B8D983031F02FEF280F22307A
:104C500040F4953031F4198E80E8809368159CDA21
:104C600069C4953038F423E0092E01C0220F0A945C
:104C7000EAF701C020E32A8F9F5F9B8F8F708430FB
:104C800009F4F4C358F4813009F4DAC2833009F02E
:104C9000A4C584E0809368157FDA80C4863009F467
:104CA000E5C3883009F099C5E1C38F70833009F0FE
:104CB00094C588E0809368156FDA33C4853019F5A0
:104CC000E0916915F0916A1584819581892B09F429
:104CD00084C510926E1510926D158FEB96E190932E
:104CE0006C1580936B1590936315809362151092E9
:104CF000741C1092731C109261151092601588E05C
:104D000080936815E7C08091A316853409F065C5C6
:104D1000C091A516D0E0DC2FCC278091A616C80F35
:104D2000D11D80916015909161158C179D0708F435
:104D300054C5D0936115C09360158091A9168F73E7
:104D400009F04BC51091AA16111147C5E0909116B4
:104D5000F0909216E114F10431F480919316909141
:104D60009416892BA1F08091B3169091B4168E15EC
:104D70009F0509F032C52091B5163091B616809185
:104D80009316909194162817390709F026C529DE45
:104D9000019609F022C58091AC16863009F4F2C064
:104DA0008131B1F1813009F018C58091B716883092
:104DB00009F013C51092B7168091B9169091BA16E2
:104DC000873F6FEF960710F0099601C00896909301
:104DD000BA168093B9168091AF169091B016909341
:104DE000B4168093B3168091B1169091B216909339
:104DF000B6168093B516F092B016E092AF16809179
:104E00009316909194169093B2168093B116E9C4BC
:104E10006C97D0936115C09360152091B9163091AD
:104E2000BA164091B7165091B8166091AF167091AE
:104E3000B016A091B116B091B216E5E7FCE18CE195
:104E4000E33DF80748F584819581009719F128170B
:104E5000390701F586819781009719F0481759079E
:104E6000C9F480819181009729F4C281D381CD2B2F
:104E700049F417C08F3FCFEF9C0721F4C281D38143
:104E8000219679F06817790729F482819381A81710
:104E9000B90739F0BF96D3CFF0936A15E09369153F
:104EA0009CC4F0936A15E093691510926E151092E8
:104EB0006D1582E0809368158FEB96E190936C15E9
:104EC00080936B1590936315809362151092741CF8
:104ED0001092731C70D98091731C9091741C009770
:104EE00009F47BC49C01245E3F4F309361152093ED
:104EF00060153093A5162093A616E0916915F091E0
:104F00006A1520852093AB1621E12093AC160896F4
:104F10009827892798279093BC168093BB161092E8
:104F2000BE161092BD16848195819093B816809319
:104F3000B716868197819093BA168093B91680919F
:104F40009116909192169093B0168093AF1680911F
:104F50009316909194169093B2168093B116808117
:104F600091819093B4168093B3168281938190932C
:104F7000B6168093B5168BEC96E190936C158093E2
:104F80006B1509C43EDD019609F027C48091881590
:104F9000882369F14091B9165091BA162091731582
:104FA000309174154217530711F54091B71650917F
:104FB000B816209175153091761542175307B9F43C
:104FC0004091AF165091B01620916F153091701529
:104FD0004217530761F44091B1165091B2162091D7
:104FE0007115309172154217530709F440C1909121
:104FF000C416292F2F73223019F092FDEEC317C06B
:105000002091B9163091BA163093C4072093C30784
:1050100040918716509188162417350709F0E9C387
:10502000811174C01092C607CFE6D5E179C084E142
:105030008093C41688E290E0909361158093601588
:1050400080E58093C3163091BE168091C21680937E
:10505000BE162091BD168091C1168093BD16209377
:10506000C1169091BC168091C0168093BC16909387
:10507000C0168091BB168093C6074091BF1640931F
:10508000BB168093BF163F5F3093C21631110DC01F
:105090002F5F2093C116211108C09F5F9093C01607
:1050A000911103C08F5F8093BF168091B7169091C6
:1050B000B8169093C4078093C3072091B916309116
:1050C000BA163093B8162093B7169093BA168093F9
:1050D000B9168091AF169091B0169093B416809344
:1050E000B3168091B1169091B2169093B616809334
:1050F000B516F092B016E092AF168091931690918B
:1051000094169093B2168093B1162BC3873019F082
:10511000C0E0D0E002C0CFE6D5E181E08093C607D1
:10512000209709F45AC3D0936E15C0936D1583E090
:105130008A8F888F1E8A84E08F8B1B8E8091B91690
:105140009091BA169D838C838091B7169091B81672
:105150009F838E838091AF169091B0169983888338
:105160008091B1169091B2169B838A8381E0898FDA
:105170008091C9078C878091CA078D878091CB0762
:105180008E878091CC078F8781E090E0998B888B08
:105190008091BE168B878091BD168A878091BC1640
:1051A00089878091BB16888781E090E0FEDB809143
:1051B000C316982F907F913508F442C082958F7066
:1051C00090E00597880F991F880F991F2091C507B8
:1051D000E12FF0E0E817F9077CF5EB56F94E26A928
:1051E000211103C01092C50729C0213011F41F5F9F
:1051F000EFCF2230E1F437A93430C9F42093C5074A
:105200001093C60780AD90E0982F882721AD822BA0
:105210009093C4078093C307873A65E0960710F020
:1052200086EA95E09B8B8A8B9D8B8C8B09C037A976
:10523000332311F0130FCCCF2093C5071093C6076B
:1052400082E18093C41682E08093CB1684E0809341
:10525000CC1685E08093CD1686EA8093CE168CE23C
:1052600090E0909361158093601580E627C22FE649
:1052700035E130936E1520936D15109268152091CD
:10528000C41622FF04C01092881580E2B5C1909127
:10529000C31692959F70990F990F9093C607C91BDB
:1052A000D1096497D0936115C09360158F708230D7
:1052B00021F4822F8F738231E9F0CD2B19F4822FE4
:1052C0008370C1F09091BB16809177159813EAC155
:1052D0009091BC16809178159813E4C19091BD16F9
:1052E000809179159813DEC19091BE1680917A1540
:1052F0009813D8C124FF58C060917F157091801514
:105300006115710509F450C08BE795E118DB309108
:10531000BF1680916415381347C02091C016809144
:105320006515281341C09091C11680916615981398
:105330003BC08091C21640916715841335C03093ED
:105340007B1520937C1590937D1580937E1580911D
:105350008A1581111EC02091851580918715909125
:105360008915891B922F969596959695891B280FDE
:105370002093851590918615392F36953695831B88
:10538000890F80938615269526952695820F809302
:10539000871581E080936815809187158093891522
:1053A0001092801510927F1520918815E22FEF70D2
:1053B0008E2F90E0FC013197E830F10508F00DC226
:1053C000EA5BFF4F0C949A428091681580FF05C2FA
:1053D00083E08093881580E480936815109280158F
:1053E00010927F158091601590916115009721F0C2
:1053F00022E420936815D9DA1092741C1092731C61
:105400000E94CC20CFE6D5E18CC08091C41680FFED
:1054100031C024FD2FC080917F1590918015892B7C
:1054200009F0DBC180916015909161150196BDDA9C
:1054300080916815982F9061909368152091601560
:1054400030916115232B19F08261809368150E94B9
:10545000CC2081E090E09093801580937F1588E0C8
:105460008093881510928A15CFE6D5E181E180936B
:10547000C4161DC185FF1DC08091C91690E0982FEC
:1054800088273091CA16832B40916B1550916C156B
:10549000480F591F50936C1540936B154091601540
:1054A00050916115BA01681B790B70936115609377
:1054B000601540916015509161154115510549F0F5
:1054C00024FD07C090916815926090936815CA01F9
:1054D0006CDA8091C51690E0982F88272091C61627
:1054E000820F911D9093C4078093C3072091831569
:1054F000309184152817390710F0892B21F4309347
:10550000C4072093C3078091C3079091C407909369
:1055100082158093811580916815837009F45DC1AF
:105520006BCF8091681585FF07C01092741C109294
:10553000731C198E84E19BCF84FF0CC01092741CE5
:105540001092731C81E090E0998B888B84E0898FA6
:105550001B8E8CCF2091731C3091741C211531054A
:10556000E1F080FF02C0198A188A8889998900971A
:1055700081F48A899B898217930720F49093741C85
:105580008093731C8091731C9091741C998B888BF1
:1055900004C09093741C8093731C1B8E80916215C1
:1055A0009091631590936C1580936B158091731C8B
:1055B0009091741C892B59F088899989009739F04A
:1055C0008896909361158093601588E10BC0809157
:1055D000681581FF02C188E290E090936115809385
:1055E000601580E18093C41668C08091681580FFC3
:1055F000F4C01092881580E1809368150E94CC2039
:10560000ECC08091601590916115009709F0CDD99B
:105610009091C4168091681590FF10C080FF0AC059
:1056200087E080938815109289151092801510924A
:105630007F151EC086E0809388151AC080FF21C0A8
:1056400085E0809388151092801510927F15C5C053
:105650008091601590916115009709F0A6D980910D
:10566000C41680FF0EC087E08093881510928915BC
:1056700081E090E09AD980E1809368150E94CC2067
:1056800011C08091601590916115892B59F4A5C0C6
:105690008091681580FFA1C087E0809388151092E3
:1056A00089159BC080E18093C416CFE6D5E188E2DE
:1056B00090E0909361158093601580E58093C31608
:1056C00088858093BF1689858093C0168A858093CC
:1056D000C1168B858093C2168C858093BB168D85F1
:1056E0008093BC168E858093BD168F858093BE16E1
:1056F00086E08093AC168C819D819093B816809340
:10570000B7168E819F819093BA168093B9168091B7
:105710009116909192169093B0168093AF16809147
:105720009316909194169093B2168093B116888137
:1057300099819093B4168093B3168A819B8190933C
:10574000B6168093B516898D84FF05C01092C616D3
:105750001092C51606C085E08093C51686EA809330
:10576000C61680E48093AB16809160159091611508
:105770009093A5168093A6161092CA161092C91679
:105780001092C8161092C7163CD9809590959093A8
:10579000C8168093C71685E48093A3161092A416AA
:1057A0001092AA161092A9168091CD079091CE075B
:1057B00001969093CE078093CD079093A716809380
:1057C000A8161092AE161092AD160BD98095909532
:1057D0009093AE168093AD1604C01092611510928E
:1057E000601510926815DF91CF911F91FF90EF9097
:1057F000089581E08093C60700CC1616170684F43E
:105800007093741C6093731C209162153091631522
:105810008217930729F0AB01BC01C9010C94B44273
:105820000895CF93DF936091B1167091B216E09115
:10583000B316F091B41680E09BE08830E9F0989FB1
:10584000D0011124ED01C952D84F48815981411529
:10585000510581F02A813B812115310559F06417EA
:10586000750741F4E217F30729F48093D207A55294
:10587000B84F4EC08F5FE1CF80E09BE0883091F061
:10588000989FE0011124C952D84F28813981232BD8
:1058900039F42A813B81232B19F48093D2072BC042
:1058A0008F5FECCF2091D007422F50E090E0C0E016
:1058B00080E06BE0883099F0689FF0011124E95294
:1058C000F84F3285DA01A31BB109E92FF0E0EA179E
:1058D000FB071CF4922F931BC82F8F5FEBCF909385
:1058E000CF07C093D107C093D2078BE0C89FE001D8
:1058F0001124C952D84F4091B1165091B2166091FF
:10590000B3167091B416DE014D935D936D937D9344
:1059100086E0EBEAF6E101900D928A95E1F780913D
:10592000D0078A87DF91CF9108958091D0078F5F4C
:105930008093D0071092D2073BE090E02091D207ED
:105940002830E0F4329FF0011124E952F84F6281CF
:10595000738140815181462B572B452B59F042854D
:10596000BC01641B71096837710524F01082118233
:10597000128213822F5F2093D207E0CF0895809187
:1059800060159091611510926115109260158A97BB
:1059900008F408958091A9169091AA16811521E026
:1059A000920729F08115924009F471C00895209161
:1059B000BB163091BC1680919116909192162817C3
:1059C000390709F07BC02091BD163091BE16809139
:1059D0009316909194162817390709F06FC021DFAC
:1059E00080E092E09093AA168093A91686E0EBEAF5
:1059F000F6E1A5EBB6E101900D928A95E1F786E01C
:105A0000EDEBF7E0ABEAB6E101900D928A95E1F794
:105A100086E0EDEBF7E0ABE9B6E101900D928A95F7
:105A2000E1F786E0E5EBF6E1A5E9B6E101900D923C
:105A30008A95E1F78091B1169091B2169093BC16B9
:105A40008093BB168091B3169091B4169093BE16B6
:105A50008093BD1680919116909192169093B216F4
:105A60008093B11680919316909194169093B416EA
:105A70008093B31688E096E09093A2168093A116C7
:105A80008AE290E0909361158093601508952091CB
:105A9000BB163091BC1680919116909192162817E2
:105AA000390761F42091BD163091BE16809193168E
:105AB000909194162817390709F4B3CE0895809170
:105AC000B3169091B4168F3F2FEF920759F420919F
:105AD000B5163091B6162F3F3F4F21F486E0E6E22F
